:020000040800F2
:10000000000900208901000883240008D920000885
:1000100081240008F9020008612C0008000000009B
:100020000000000000000000000000005928000847
:100030000903000800000000B12500085B28000843
:10004000A3010008A3010008A3010008A301000800
:10005000A3010008A3010008A3010008A3010008F0
:10006000A3010008A3010008A3010008A3010008E0
:10007000A3010008A3010008A3010008A3010008D0
:10008000A3010008A3010008A3010008A3010008C0
:10009000552C0008FD020008A3010008A301000878
:1000A000A3010008A3010008A3010008A3010008A0
:1000B000A3010008A3010008D9280008A301000833
:1000C000A3010008A3010008A3010008A301000880
:1000D000A3010008A3010008A3010008A301000870
:1000E000A3010008A3010008A301000800F002F822
:1000F00000F03AF80AA090E8000C82448344AAF188
:100100000107DA4501D100F02FF8AFF2090EBAE885
:100110000F0013F0010F18BFFB1A43F0010318473B
:10012000543E0000743E0000103A24BF78C878C1E5
:10013000FAD8520724BF30C830C144BF04680C60ED
:10014000704700000023002400250026103A28BF35
:1001500078C1FBD8520728BF30C148BF0B60704739
:100160001FB51FBD10B510BD00F05CF81146FFF7BC
:10017000F7FF02F0C9FD00F07AF803B4FFF7F2FFD1
:1001800003BC00F07FF80000094880470948004799
:10019000FEE7FEE7FEE7FEE7FEE7FEE7FEE7FEE737
:1001A000FEE7FEE704480549054A064B7047000094
:1001B000D5280008ED0000080003002000090020F9
:1001C00000050020000500204FF0000200B5134696
:1001D00094469646203922BFA0E80C50A0E80C5067
:1001E000B1F12001BFF4F7AF090728BFA0E80C5018
:1001F00048BF0CC05DF804EB890028BF40F8042B11
:1002000008BF704748BF20F8022B11F0804F18BF7D
:1002100000F8012B704770477047704700487047DF
:10022000A00200207546FFF7F9FFAE4605006946BB
:10023000534620F00700854618B020B5FFF7B2FFFF
:10024000BDE820404FF000064FF000074FF00008D7
:100250004FF0000B21F00701AC46ACE8C009ACE858
:10026000C009ACE8C009ACE8C0098D46704710B5BC
:100270000446AFF300802046BDE81040FFF77DBF85
:100280007047000001491820ABBEFEE726000200BF
:1002900070B5044600688168C943C9071CD18168EC
:1002A00021F00101816000F019FE05460FE000BF5A
:1002B00000F014FE401B022809D9A06A40F010008B
:1002C000A062E06A40F00100E062012070BD206899
:1002D0008068C043C007EBD0002070BD70477047F6
:1002E0007047704770477047704770477047704756
:1002F0007047704770477047FEE70000014800F004
:10030000ABBA0000BC000020704702F0D3B8000078
:10031000F8B50024009490F824202546012A12D034
:10032000012280F824204A681F23072A0DD206687C
:10033000776B521E02EB820293409F430B689340FF
:100340001F43776319E00220F8BD06680D2A0AD220
:10035000376BD21F02EB820293409F430B6893409E
:100360001F43376309E0F76A0D3A02EB82029340BC
:100370009F430B6893401F43F7620A680723066890
:100380000A2A0AD3F7680A3A02EB420293409F43D3
:100390008B6893401F43F76008E0376902EB420225
:1003A00093409F438B6893401F4337610A68102A2C
:1003B00001D0112A20D1124B02689A4217D19368BA
:1003C0001B0219D4936843F4000393600968102951
:1003D00012D10C490C4A0968B1FBF2F101EB810121
:1003E000490000E0491E00910029FBD104E0816A28
:1003F00041F020018162012480F824502046F8BD9C
:10040000002401407800002040420F002DE9F04117
:100410004FF0000704003D467ED0A06A002628B9B0
:10042000E66284F82460204600F07EF82046FFF75C
:100430002FFFA16AC90600D420B1A06A40F01000C5
:10044000A06269E0A16A21F4885141F00201A16231
:100450006268E169237B0A4347EA43010A43A168D2
:100460004FF48077B94209D0012907D05FF000012D
:1004700094F814C0BCF1010F02D00AE03946F7E746
:10048000F3B1A36A43F02003A362E36A43F00103DC
:10049000E3622368D3F804C02CF4694C4CEA010CE5
:1004A000C3F804C021688B68DFF870C003EA0C034E
:1004B00013438B60A168B9420BD0012909D00CE02D
:1004C000DFF85CC0A3690CEB43330B4343F40061DA
:1004D000DFE7218A0D05A5F580152168CB6A23F495
:1004E00070032B43CB62216889680E4B19409142FF
:1004F00008D1E662A16A21F0020141F00101A16286
:10050000BDE8F081A06A20F0020040F01000A06277
:10051000E06A40F00100E0620120F1E7FDF7E1FF51
:1005200000E0FFFFFE0E1FFF00B585B00021009127
:1005300001910291039100680E49884217D10E483B
:10054000816941F400718161816901F40071049154
:10055000816941F0040181618069694600F004000D
:100560000490032000900190044800F0BDFB05B00A
:1005700000BD0000002401400010024000080140BE
:1005800090F82020012A07D0022A05D0416A41F4C0
:100590008021416201207047006842690A4342613C
:1005A00000207047F0B590F820500468A468012D31
:1005B00005D0022D03D0416A41F480215DE014F0A2
:1005C000406F01D1E50055D5C4F30164022C03D975
:1005D000416A41F4000150E00125A5401D608D688D
:1005E0004FF4C0739DB1CE6835434E6845EAC605E9
:1005F000066803EB0417F5514FF4C275076805EB65
:1006000004150E697E51097D012905D009E00E8887
:10061000CD6845EA4655EBE701684E5946F48076C9
:100620004E511179D579567941EA056195792D04B4
:1006300045EA062529434FF4C676056806EB0416FD
:10064000A9511178D57841EA0561957852782D0441
:1006500045EA022211434FF4C475026805EB041504
:100660005151006803EB0411425842F0010242501C
:100670000020F0BD416A41F4001141620120F0BD4B
:1006800010B590F820300268012B07D0022B05D05E
:10069000416A41F480214162012010BDD2F800027C
:1006A00040F00100C2F80002087D00F01F030120A5
:1006B0009840D2F81C328343C2F81C32CB69B3B9DC
:1006C000D2F80C328343C2F80C328C894B6864F345
:1006D0001F434C6902EBC404C4F840320C890B6818
:1006E00064F31F434C6902EBC404C4F84432CB6981
:1006F000012B16D1D2F80C320343C2F80C320C880D
:100700004B6864F31F434C6902EBC404C4F84032E5
:100710000C89CB6864F31F434C6902EBC404C4F832
:1007200044328B69002BD2F804320FD053EA000315
:10073000C2F804320B69002BD2F8143208D00343FC
:10074000C2F81432096A012904D008E08343EFE7B4
:100750008343F5E7D2F81C120143C2F81C12D2F809
:10076000000220F00100C2F80002002010BD704716
:1007700030B590F82040012C05D0022C03D0416AFE
:1007800041F480215DE00468002955D02469A40764
:1007900054D04FF4D874056804EB01142D5915F0AA
:1007A0000405956005682D594ED0ED085560056823
:1007B0002C5904F00204D4604FF4DA74056804EB99
:1007C00001142D5905F00F05156105682D59C5F364
:1007D0000725956105682C59240C54614FF4DC728F
:1007E000046802EB0112A4581C700468A458240A7F
:1007F0005C700468A458240C9C700468A258120E03
:10080000DA704FF4DE72046802EB0112A4581C7116
:100810000468A458240A5C710468A458240C9C71D0
:100820000468A258120EDA71006881B1016941F0C2
:1008300020010161002030BDE468A8E7416A41F46D
:1008400000114162012030BD6D0D1560AFE7C16838
:1008500041F02001C160EDE72DE9F05F0546006839
:1008600000244669D0F804908768D0F80CB0D0F81E
:1008700010A0D0F81880F10748D0F90714D0012152
:100880008160B80703D5284600F015FA0CE0780718
:1008900002D54FF4006407E0380702D54FF48054C6
:1008A00002E0284600F006FAF80516D529684FF44C
:1008B00080708860B80503D5284600F0FEF90CE08A
:1008C000780502D544F4005407E0380502D544F415
:1008D000804402E0284600F0EFF9F80316D52968B5
:1008E0004FF480308860B80303D5284600F0E7F95C
:1008F0000CE0780302D544F4004407E0380302D545
:1009000044F4803402E0284600F0D8F9300707D5D7
:100910005FEACB6004D52968102044F40074C860F5
:1009200070074FF0080707D55FEA0B7004D52868F9
:10093000C760284600F06EF9B00706D52868C06881
:10094000800702D0284600F067F9700607D55FEAF5
:10095000CA6004D52968102044F480640861B00698
:1009600007D55FEA0A7004D528680761284600F0B9
:1009700071F9F00606D528680069800702D028467C
:1009800000F069F9B00308D55FEAC96005D52968A8
:1009900010204860284600F05FF9F00307D55FEAB1
:1009A000097004D528684760284600F089F93004AA
:1009B00046D55FEA497040D5F00504D55FEAC870B6
:1009C00001D044F00104B00504D55FEA887001D578
:1009D00044F00204700504D55FEA487001D544F084
:1009E0000404300529D518F0700F26D008F07000E7
:1009F000402815D006DC102809D020280AD030283D
:100A000016D10AE050280ED0602811D10EE044F033
:100A100008040DE044F010040AE044F0200407E06C
:100A200044F0400404E044F0800401E044F48074A5
:100A30002868816921F0700181612968042048607B
:100A4000002C05D0686A204368622846FFF78FFEB5
:100A5000BDE8F09F70B5040003D094F8200010B1F9
:100A600004E0012070BD204600F082F82068016893
:100A700021F00201016000F031FA0546052604E08C
:100A800000F02CFA401B0A2811D820684068800723
:100A9000F6D42068016841F00101016000F01EFAFF
:100AA00005460BE000F01AFA401B0A2806D9606AD6
:100AB00040F40030606284F82060D2E7206840682B
:100AC000C007EFD0207E0128206801683DD021F0CA
:100AD00080010160607E01282068016838D021F023
:100AE00040010160A07E01282068016833D021F018
:100AF00020010160E07E0128206801682ED041F0CD
:100B000010010160207F01282068016829D021F0B0
:100B100008010160607F01282068016824D021F06D
:100B200004010160D4E902010843D4E9041211432D
:100B300008436168491E08432168C861002060625B
:100B4000012084F82000002070BD41F08001C0E742
:100B500041F04001C5E741F02001CAE721F0100152
:100B6000CFE741F00801D4E741F00401D9E70000E4
:100B700010B586B0002100910191029103910068A7
:100B8000204988423BD12048C16941F00071C161D0
:100B9000C16901F000710491816941F0080181612E
:100BA00080691A4C00F0080004904FF480700090A7
:100BB0006946204600F098F86015009002200190E8
:100BC000032003906946204600F08EF810484168E3
:100BD00021F4C04141F0E06141F4804141600022D4
:100BE0001146142000F0E6F9142000F0D5F9002297
:100BF0001146152000F0DEF9152000F0CDF906B001
:100C000010BD00000064004000100240000C0140D4
:100C1000000001407047000010B5044600680A4912
:100C200088420FD1094B0A4A00212046FFF7A0FD58
:100C300006490120503948832046BDE81040022172
:100C4000FFF79EBC10BD0000006400405000002073
:100C5000EC010020704770477047000070B50446F3
:100C600090F82000012804D0606A40F400206062FF
:100C700018E0022084F820002068016821F00101BA
:100C8000016000F02BF905460EE000BF00F026F9E8
:100C9000401B0A2808D9606A40F4003060620520D1
:100CA00084F82000012070BD20684068C007EDD1A5
:100CB000606270BD704770477047704770477047FB
:100CC0007047000070B5044600F008F90546601C46
:100CD00002D004480078044400F000F9401BA04210
:100CE000FAD370BD6C0000202DE9F84FDFF8B89101
:100CF000002409F1040A0AF1040B23460F270BF123
:100D0000040EC9E00125A5402A40AA427DD1674EC4
:100D1000D1F804C0ACEB0608B44532D014DCBCF109
:100D2000030F3AD009DCBCF1000F2AD0BCF1010F4F
:100D30001CD0BCF1020F31D11DE0BCF1110F17D056
:100D4000BCF1120F2AD119E0B8F5881F19D006DCC2
:100D5000B8F5803F15D0B8F5801F1FD111E0B8F568
:100D6000001F0ED0B8F5041F18D10AE0CB6815E0BB
:100D7000CB681B1D12E0CB6808330FE0CB680C3347
:100D80000CE08B682BB1012B4FF0080303D04561B9
:100D900004E0042302E0056100E00023FF2A01D8FB
:100DA000064601E000F104064FEA840501D9A5F1E9
:100DB0002005D6F8008007FA05FC28EA0C0803FA9B
:100DC00005F548EA0508C6F800804D68ED0062D5D3
:100DD000374DAE6946F00106AE61AD6924F00306F9
:100DE00005F001050095334D06EB050CDCF80850C5
:100DF000A607360F07FA06F825EA0805DFF8B880D7
:100E0000404503D14FF0000817E044E0DFF8AC8024
:100E1000404502D14FF001080FE0DFF8A4804045C3
:100E200002D14FF0020808E0DFF89880404502D177
:100E30004FF0030801E04FF0040808FA06F848EA0A
:100E40000508CCF808804D68D9F80060ED034D46E0
:100E500001D5164300E096432E604D68DAF8006035
:100E6000AD03554601D5164300E096432E604D680C
:100E7000DBF80060ED025D4601D5164300E09643C5
:100E80002E604D68DEF80060AD02754601D5164350
:100E900000E096432E60641C0D682A46E5407FF40E
:100EA00031AFBDE8F88F00000004014000001110D0
:100EB000001002400000014000080140000C014009
:100EC00000100140001401408068084000D001205B
:100ED00070470AB1016170470904FBE70148806867
:100EE000704700006C0000200248816802781144BD
:100EF000816070476C000020074810B5016841F020
:100F000010010160032000F075F80F2000F006F8D2
:100F100000F024F8002010BD0020024070B50D4DF7
:100F200004464FF47A712878B1FBF0F00A49096859
:100F3000B1FBF0F000F049FE48B9102C07D20022B6
:100F40002146501E00F036F800206C6070BD012074
:100F500070BD00006C000020780000200C4808B52F
:100F6000816941F001018161816901F00101009114
:100F7000C16941F08051C161C06900F080500090AA
:100F80000448416821F0E06141F00071416008BD12
:100F90000010024000000140002809DB00F01F02A1
:100FA000012191404009800000F1E020C0F80011CB
:100FB00070470000F0B40E4B1B680C46C3F30223CD
:100FC000C3F10705042D00D90425191D072901D2F5
:100FD000002300E0DB1E012606FA05F1491E214030
:100FE00099409E40761E16403143F0BC01F041BE50
:100FF0000CED00E0064900F0070208684FF6FF0319
:10100000184040EA0220034A10430860704700007D
:101010000CED00E00000FA052DE9F84305460078E4
:10102000354CC00754D0E0690026C00008D4E06900
:1010300040F08050E061E069012600F080500090AF
:101040002E480168C90512D40168804641F48071B8
:101050000160FFF743FF074605E000BFFFF73EFFD3
:10106000C01B642823D8D8F80000C005F6D5206A34
:1010700010F4407021D0A98801F4407181421CD045
:10108000206A1F49012220F440700A6000220A6091
:101090002062C00711D0FFF721FF074641F28838D0
:1010A00008E000BFFFF71AFFC11B414502D903202A
:1010B000BDE8F883206A8007F4D5206A696820F4C7
:1010C0004070084320621EB1E06920F08050E0616A
:1010D0002878800705D56068A96820F44040084357
:1010E00060602878C00605D56068E96820F4800053
:1010F000084360600020DBE7001002400070004001
:10110000400442422DE9F0470F46050061D0434EAE
:10111000306800F00700B84209D2306820F00700BC
:1011200038433060306800F00700B84251D1286879
:101130003B4C810712D5400703D5606840F4E0605E
:1011400060602878000703D5606840F460506060F4
:101150006068A96820F0F000084360602878C00744
:1011600028D06868012810D02168022810D089078B
:1011700000292EDA616821F0030101436160FFF765
:10118000ADFE804641F288390DE021688903EFE722
:101190008901EDE7FFF7A2FEA0EB0801494502D95E
:1011A0000320BDE8F0876068696800F00C00B0EBD0
:1011B000810FEFD1306800F00700B8420BD93068DA
:1011C00020F0070038433060306800F00700B84274
:1011D00001D00120E5E72878400705D56068E96877
:1011E00020F4E060084360602878000706D5606856
:1011F000296920F4605040EAC100606000F038F8CE
:101200006168084AC1F30311515CC840064908608F
:1012100006480068FFF782FE0020C2E70020024077
:10122000001002405A3F00087800002070000020A3
:101230000448054900684968044AC1F30221515C29
:10124000C840704778000020001002406A3F000844
:101250000448054900684968044AC1F3C221515C49
:10126000C840704778000020001002406A3F000824
:1012700013A185B00FC98DE80F0015A0154A0068AD
:101280000490516801F00C00042804D0082804D010
:10129000114805B070471148FBE7C1F38343C90308
:1012A0001DF8030009D5516804AAC1F34041515CFF
:1012B0000A4A5043B0FBF1F0EBE709494843E8E73D
:1012C00002030405060708090A0B0C0D0E0F101087
:1012D000010200000010024000127A00001BB7005B
:1012E00000093D002DE9F84F040070D02078C04D72
:1012F000C00749D06868C0F38100012807D068683A
:10130000C0F38100022809D16868C00306D52868A7
:10131000800339D560680028E7D035E06068B0F513
:10132000803F0BD010B1B0F5A02F11D0286820F469
:1013300080302860286820F4802002E0286840F48B
:1013400080302860606890B1FFF7C8FD06460AE06B
:10135000286840F480202860F0E700BFFFF7BEFD5A
:10136000801B642873D828688003F7D50CE0FFF74A
:10137000B5FD064605E000BFFFF7B0FD801B642801
:10138000F0D828688003F7D420789A4E80074FF071
:1013900001094FF0000839D5686810F00C0F07D02C
:1013A0006868C0F38100022809D16868C00306D4C8
:1013B0002868800714D52069012808D110E0206929
:1013C000B0B1C6F80090FFF789FD074605E00AE1D5
:1013D000FFF784FDC01B0228C4D828688007F7D512
:1013E0002868616920F0F80040EAC10028600DE03B
:1013F000C6F80080FFF772FD074604E0FFF76EFDB8
:10140000C01B022823D828688007F7D4207800075B
:101410002CD57948A169D9B1C0F80090FFF75EFDDD
:10142000074604E0FFF75AFDC01B02280FD8686A80
:101430008007F7D571484FF4FA510068B0FBF1F01E
:10144000009000BF0098411E0091FAD20EE080E0AB
:10145000C0F80080FFF742FD074604E0FFF73EFDBD
:10146000C01B022875D8686A8007F7D42078400727
:1014700060D5E8690027C00008D4E86940F08050D2
:10148000E861E869012700F0805000905C4801683D
:10149000C90513D40168834641F480710160FFF7E8
:1014A0001DFD824606E000BFFFF718FDA0EB0A0015
:1014B00064284ED8DBF80000C005F5D5E0680128A7
:1014C0000AD008B1052813D0286A20F0010028624C
:1014D000286A20F0040002E0286A40F00100286237
:1014E000E06841F2883B98B1FFF7F8FC82460BE0D8
:1014F000286A40F004002862EEE700BFFFF7EEFC28
:10150000A0EB0A0159455AD8286A8007F6D50CE0A5
:10151000FFF7E4FC824605E0FFF7E0FCA0EB0A01E0
:1015200059454CD8286A8007F6D41FB1E86920F0E5
:101530008050E861E06988B36968C1F381010229DC
:1015400044D00228C6F8608004D0FFF7C7FC0446E8
:1015500038E034E0FFF7C2FC074604E0FFF7BEFCCA
:10156000C01B02282BD828688001F7D4206AB0F568
:10157000803F05D16868A16820F4003008436860A6
:10158000D4E908010843696821F4741108436860CC
:10159000C6F86090FFF7A2FC044606E025E000BF15
:1015A000FFF79CFC001B022809D828688001F7D5AA
:1015B0001BE000BFFFF792FC001B022802D90320AA
:1015C000BDE8F88F28688001F4D40EE00128F7D038
:1015D0006868226A00F48031914204D1616A00F4A3
:1015E0007010884201D00120EAE70020E8E70000FF
:1015F0000010024000004242800442427800002075
:101600000070004070B5040009D0606A002540B148
:1016100025616561A56294F8510040B10CE001209C
:1016200070BD6068B0F5827FF4D0E561F2E784F8C0
:101630005050204600F040F8022084F85100206805
:10164000016821F040010160A088218900F48270C6
:1016500001F404410843A18901F400610843217C9D
:1016600001F002010843217D01F001010843218BB3
:1016700001F400710843217F01F03801084394F818
:10168000201001F080010843218D01F4005108432E
:1016900021680860A069042101EA104021684860BF
:1016A0002068C16921F40061C1616565012084F889
:1016B0005100002070BD000000B585B000210091F0
:1016C00001910291039100681349884221D1134886
:1016D000816941F480518161816901F480510491F3
:1016E000816941F0080181618069694600F0080064
:1016F00004902820009002200190032003900848C5
:10170000FFF7F2FA0748416841F0E06141F001015A
:10171000416005B000BD00000030014000100240F3
:10172000000C0140000001402DE9F84F04464068DC
:101730000025984616460F464FF0040BB0F5827F01
:1017400001D1A06888B194F85000012818D0012078
:1017500084F85000FFF7C2FB814694F851004FF027
:10176000000A01280ED0022582E084F851B0134609
:101770000A462046CDF8008000F036F9BDE8F88F23
:101780000220FBE7002F72D0002E70D084F851B0F9
:10179000C4F854A0A763A687E687C4F830A0A4F8CD
:1017A00034A0A4F836A0C4F840A0C4F844A0A068AF
:1017B000B0F5004F09D12068016821F040010160B7
:1017C0002068016821F480410160206801684906B1
:1017D00003D4016841F040010160E068D8B139E00C
:1017E00020688168C90709D0007BA16B0870A06BD5
:1017F000401CA063E08F401EE0870CE0FFF76EFB0B
:10180000A0EB0901414503D3B8F1FF3F03D036E017
:10181000B8F1000F33D0E08F0028E1D11DE020683F
:101820008168C90709D0C068A16B0880A06B801CC3
:10183000A063E08F401EE0870CE0FFF74FFBA0EBBA
:101840000901414503D3B8F1FF3F03D017E0B8F1D8
:10185000000F14D0E08F0028E1D14A4641462046CF
:1018600000F060FF08B120206065606D00B10125C7
:10187000012084F8510084F850A028467EE7032513
:10188000F6E72DE9F84F044690F8500000271D4672
:101890001646894601280DD04FF0010B84F850B050
:1018A000FFF71CFB804694F85100BA46012804D08B
:1018B000022793E00220BDE8F88FB9F1000F73D042
:1018C000002E71D0032084F85100C4F854A0C4F84D
:1018D0003090A686E686C4F838A0A4F83CA0A4F808
:1018E0003EA0C4F844A0C4F840A0A068B0F5004FE2
:1018F00009D12068016821F0400101602068016879
:1019000041F48041016020680168490603D4016800
:1019100041F040010160E068B0F5006F606803D0FD
:1019200030B3012E24D041E008B1012E1CD1206B30
:1019300021680088C86006E020688168890709D5A9
:10194000216B0988C160206B801C2063E08E401EE3
:10195000E08609E0FFF7C2FAA0EB0800A84202D334
:10196000681C01D031E07DB3E08E0028E4D120E096
:10197000206B21680078087306E020688168890779
:1019800009D5216B09780173206B401C2063E08E20
:10199000401EE0860AE0FFF7A1FAA0EB0800A8428B
:1019A00003D3681C02D010E017E06DB1E08E002870
:1019B000E3D142462946204600F0E2FE08B120204D
:1019C0006065A06818B106E0FFE7032706E020681D
:1019D000C16880680090606D00B1012784F851B043
:1019E00084F850A0384666E72DE9F84F044690F891
:1019F000500000270A9E1D4692468B464FF0010973
:101A000001280ED0012084F85000FFF767FA8046C5
:101A100094F85100616801280CD0B1F5827F07D19C
:101A200002E00220BDE8F88FA16809B9042801D0BE
:101A30000227C2E0BBF1000F27D0BAF1000F24D07B
:101A40001DB394F85100042802D0052084F85100F9
:101A500000206065C4F838A0E587A587C4F830B0D9
:101A6000E586A5862064606420680168490603D481
:101A7000016841F040010160E068B0F5006F606806
:101A800005D0E8B3012D46D07FE0012795E008B1ED
:101A9000012D39D1206B21680088C860206B801C23
:101AA0002063E08E401EE0862EE020688168890772
:101AB0000FD5E18E69B1B9F1010F0AD1216B098807
:101AC000C160206B801C2063E08E401EE0864FF0DA
:101AD000000920688168C9070CD0E18F51B1C06846
:101AE000A16B0880A06B801CA063E08F401EE08784
:101AF0004FF00109FFF7F2F9A0EB0800B04200E057
:101B000009E001D3701C50D1E08E0028CDD1E08FC8
:101B10000028CAD13FE0206B216800780873206B51
:101B2000401C2063E08E401EE0862EE02068816825
:101B300089070FD5E18E69B1B9F1010F0AD1216B87
:101B400009780173206B401C2063E08E401EE08604
:101B50004FF0000920688168C9070CD0E18F51B1AE
:101B6000C068A16B0870A06B401CA063E08F401E92
:101B7000E0874FF00109FFF7B1F9A0EB0800B04290
:101B800002D3701C01D010E07EB1E08E0028CDD1D0
:101B9000E08F0028CAD142463146204600F0F0FDD1
:101BA00028B101272020606507E0032705E0A06831
:101BB00018B92068C16880680090012084F851003D
:101BC000002084F8500038462CE710B5401EB0F1D4
:101BD000807F01D3012010BD4FF0E02460610F2110
:101BE000601701F046F80020A06107202061002066
:101BF00010BD70477047000070B590F83C20012A76
:101C000026D0012480F83C40022280F83D20036861
:101C10005A689D6822F070060A6832435A600D4B7C
:101C200002689A4208D0B2F1804F05D00A4B9A421E
:101C300002D00A4B9A4204D1496825F08003194327
:101C4000916080F83D40002180F83C10084670BD4E
:101C5000022070BD002C014000040040000800403C
:101C600010B5040003D094F83D0010B107E0012046
:101C700010BD002084F83C00204600F01FF8022030
:101C800084F83D00211D206800F02CFE012084F81E
:101C9000460084F83E0084F83F0084F8400084F851
:101CA000410084F8420084F8430084F8440084F83A
:101CB000450084F83D00002010BD000008B5006814
:101CC0000B49884212D10B48C16941F00401C1613E
:101CD000C069002200F00400009011461E20FFF7AA
:101CE00069F9BDE808401E20FFF756B908BD00009D
:101CF000000800400010024090F83D10012901D07A
:101D000001207047022180F83D100168CA6842F046
:101D10000102CA6000680B49884208D0B0F1804FC8
:101D200005D00949884202D00849884204D1816817
:101D300001F00701062903D0016841F001010160AB
:101D400000207047002C01400004004000080040C3
:101D500070B5044690F83C00012817D0012584F89E
:101D60003C50022084F83D002068826822F077020F
:101D700022F47F4282600868502830D00DDC202891
:101D80004DD005DC98B310283BD148E0022070BD4F
:101D9000302844D0402834D139E0602828D0702839
:101DA00006D0B0F5805F2CD0B0F5005F29D10AE0F5
:101DB000CB68D1E90121206800F0CAFD2068816864
:101DC00041F0770109E0CB68D1E90121206800F0FA
:101DD000BFFD2068816841F48041816011E0CA68DC
:101DE0004968206800F0C6FD5021206807E016E031
:101DF000CA684968206800F0CEFD6021206800F0C4
:101E0000B1FD84F83D50002084F83C0070BDCA68E4
:101E10004968206800F0AEFD40212068EFE72268A5
:101E200001461046EBE7704770B50446006801694B
:101E30004FF00005C943890715D4C168C943890714
:101E400011D4E91E01610120207720688069800794
:101E5000204602D0FFF7E7FF04E000F098F82046A4
:101E600000F096F8257720680169C943490717D41F
:101E7000C168C943490713D46FF00401016102200E
:101E800020772068806910F4407F204602D0FFF759
:101E9000CAFF04E000F07BF8204600F079F82577CF
:101EA00020680169C943090716D4C168C9430907F5
:101EB00012D46FF008010161042020772068C06906
:101EC0008007204602D0FFF7AEFF04E000F05FF885
:101ED000204600F05DF8257720680169C943C906EE
:101EE00017D4C168C943C90613D46FF0100101614A
:101EF000082020772068C06910F4407F204602D077
:101F0000FFF791FF04E000F042F8204600F040F8AF
:101F1000257720680169C943C90708D1C168C94349
:101F2000C90704D1891E0161204600F033F82068FA
:101F30000169C943090609D4C168C943090605D422
:101F40006FF0800101612046FFF753FE20680169B0
:101F5000C943490609D4C168C943490605D46FF08D
:101F600040010161204600F04DF820680169C94335
:101F700089060BD4C168C943890607D46FF02001D4
:101F800001612046BDE87040FFF734BE70BD704768
:101F900070470000F0B419490068096888422AD1E6
:101FA00017480121C180028A521C0282828B521C76
:101FB00096B28683C28B521C95B2C583028C521C8A
:101FC00094B20484428C521C93B200224384052EA6
:101FD00001D182830181642D01D1C2834181642CAE
:101FE00001D102848181B3F57A7F01D14284418697
:101FF000F0BC00F0B3BAF0BC704700003C01002018
:1020000000000020704770B5040004D094F8390037
:10201000002510B106E0012070BD84F8385020463C
:1020200000F022F8242084F839002068C16821F4E7
:102030000051C160204600F0B1FD2068016921F423
:10204000904101612068416921F02A0141612068C5
:10205000C16841F40051C160E563202084F8390073
:1020600084F83A00002070BD30B585B0002400949B
:1020700001940294039400681449884224D11448BE
:10208000816941F480418161816901F48041049159
:10209000816941F00401816180690E4D00F0040006
:1020A00004904FF4007000900220019003200390F0
:1020B00069462846FEF718FE2815CDE90004694652
:1020C00028460294FEF710FE05B030BD00380140EE
:1020D0000010024000080140FEE770B50D460446BE
:1020E00000F052F8204600F007F8284600F004F807
:1020F000BDE8704000F06CB870B5224E0446002573
:10210000002280213046FEF7E4FE200601D40022A2
:1021100000E0012240213046FEF7DBFE6006040E9F
:10212000012000F0E7FD012280213046FEF7D1FEBC
:10213000012000F0DFFD6D1CEDB2082DE0D3002280
:1021400080213046FEF7C5FE012000F0D3FD0122BC
:1021500040213046FEF7BDFE012000F0CBFD0122FC
:1021600080213046FEF7B5FE012000F0C3FD0022BD
:1021700080213046FEF7ADFEBDE87040012000F042
:10218000B9BD0000000C014010B5104C01228021A7
:102190002046FEF79EFE012240212046FEF799FED2
:1021A000012000F0A7FD002240212046FEF791FE0D
:1021B000012000F09FFD002280212046FEF789FECD
:1021C000BDE810407820FFF797BF0000000C0140E9
:1021D00010B50C4C002240212046FEF77AFE01206B
:1021E00000F088FD012280212046FEF772FE0320C8
:1021F00000F080FD20460122BDE810404021FEF79E
:1022000068BE0000000C0140FEF77FB83EB5002418
:1022100010480094019402940D4984600160047395
:102220000475012505614FF460214460C161FEF72A
:10223000EDF808B172B6FEE7CDE9004569460548FC
:102240000294FEF765F8002801D072B6FEE73EBDA5
:10225000002401408C00002010B5104C0E484FF4B3
:1022600080312060092060600020A060C4E9030183
:102270006061207601216176A176E0762077607733
:102280002046FEF7E7FB08B172B6FEE72068416919
:1022900041F00201416110BD00640040BC0000201B
:1022A0002DE9F04385B00024454800940194029440
:1022B0000394816941F010018161816901F010018D
:1022C0000491816941F020018161816901F020015F
:1022D0000491816941F004018161816901F0040187
:1022E0000491816941F0080181618069354F00F0F6
:1022F00008004FF400550490002229463846FEF7A6
:10230000E8FDDFF8C490002249F6D3414846FEF7C5
:10231000E0FD012229464846FEF7DBFDDFF8AC80F0
:1023200000224FF401414046FEF7D3FD00950226FE
:1023300001250396CDE9015469463846FEF7D4FCE1
:102340004FF440408DE8310069463846FEF7CCFC3A
:102350000C208DE8310069464046FEF7C5FC4BF67F
:102360001340CDE90005CDE9024669464846FEF72F
:10237000BBFCA803CDE90004694648460294FEF779
:10238000B3FC2802CDE90005CDE902466946404686
:10239000FEF7AAFCE803CDE90005CDE9025669463F
:1023A0004046FEF7A1FCC020009001AA112082E85F
:1023B000610069464846FEF797FC05B0BDE8F0832A
:1023C0000010024000100140000C014000080140D4
:1023D000104810B50E4901604FF4827141604FF40E
:1023E000004181600911C16000210122C0E904128D
:1023F000520282611822C0E90721416281620A21EA
:10240000C162FFF7FFF8002801D072B6FEE710BDE9
:1024100000300140E400002010B586B000241748C9
:102420000094019402940394049413490594016068
:102430004721C0E9011440F2E731C0E903148021CB
:102440008161FFF70DFC08B172B6FEE74FF48050D2
:10245000009069460948FFF77BFC08B172B6FEE7B9
:10246000049404A905480594FFF7C6FB002801D091
:1024700072B6FEE706B010BD000800403C01002027
:10248000FEE7FEE770B50024204600F0EAFB1020CE
:1024900000F0E7FB002000F0E4FB0025FF2000F047
:1024A000E4FB6D1CEDB2802DF8D3641CE4B2042C67
:1024B000EAD370BD10B5AE2000F0D3FBD52000F0FC
:1024C000D0FB802000F0CDFBA82000F0CAFB1F202D
:1024D00000F0C7FBD32000F0C4FB002000F0C1FBDC
:1024E000402000F0BEFB8D2000F0BBFB142000F06C
:1024F000B8FB202000F0B5FB022000F0B2FBA120C9
:1025000000F0AFFBC82000F0ACFBDA2000F0A9FB24
:10251000022000F0A6FB812000F0A3FBEF2000F0DA
:10252000A0FBD92000F09DFBF12000F09AFBDB20FE
:1025300000F097FB302000F094FBA42000F091FB0A
:10254000A62000F08EFBAF2000F08BFBFFF79AFF78
:10255000BDE81040012000F0CDBB00000348016839
:10256000002901D0491E0160704700007C00002056
:1025700070B50C4C0A480025C4E90005A56000F0C0
:102580007DF80948006CE0600848E0624042E5617F
:1025900020633220606342F21070C4E90E0570BD02
:1025A0000000F0410802002000000020A086010089
:1025B000704700002DE9F0472E482F4CDFF8B4801B
:1025C000006C2061E16808F15808451A6561606B8C
:1025D00085420ADA4042854207DD00206061A8F8A2
:1025E0000000C8F80400BDE8F087284601F0E4FACE
:1025F0008146616A01F062FA07466062E069281A62
:1026000001F0DAFAA16801F0EFFA0646394660688F
:1026100001F0EAFA07464846216801F0E5FA394632
:1026200001F04CFA314601F0ABFB01F0A9FAA062CF
:10263000E16A884202DC216B884200DAA1620E481E
:10264000A26AC16B806B002AA2EB010204DA43424A
:102650009A4205DA081A02E0824201DD0844A062CB
:10266000A16AE5610122E163A8F80020C8F804101E
:10267000B9E7000000000020080200201CB548F265
:102680002000254CADF80400002210212046FEF762
:1026900020FCFF23012201A92048FFF7F2F81F4880
:1026A0000168086820F040000860FF2301226946A5
:1026B0001A48FFF739F8012210212046FEF709FCDD
:1026C0001748C28AB0F918108A420BDABDF8002008
:1026D000C1F50041C2F30E02C282914216DA818A2C
:1026E000491E0CE0C1F5004393420ADABDF8002010
:1026F000C2F30E02C2828A4208DA818A491C8182B0
:1027000004E0BDF80010C1F30E01C182C18A828AC3
:1027100001EBC23101641CBD000C0140E40000204B
:1027200000000020F8B5044640684FF482739842D8
:1027300017D1A0684FF48065B0F5004F01D0A842D2
:102740000FD12068066826F040060660606898424F
:1027500007D1A068A84204D100920B4600220121B3
:1027600003E000920B4600228021204600F018F87A
:10277000002804D0606D40F0200060650320F8BDA3
:1027800038B50B46009204460022802100F008F87C
:10279000002804D0606D40F020006065032038BD43
:1027A0002DE9F8431E46914688460446089DFEF7EB
:1027B00095FB401B351AFEF791FB0746254800683C
:1027C000C0F3CB30684338E0701C37D0FEF786FB8F
:1027D000C01BA84203D215B1009860B32CE020685A
:1027E000416821F0E00141606068B0F5827F0BD163
:1027F000A068B0F5004F02D0B0F5806F04D120681A
:10280000016821F040010160A06AB0F5005F09D1C4
:102810002068016821F4005101602068016841F4DA
:1028200000510160012084F85100002084F850001C
:102830000320BDE8F8830025401E009020688168D1
:1028400038EA010004D000214945BDD10020F0E75D
:102850000121F9E7780000207047FEF745BB30B54D
:1028600093B028216846FDF7AFFC14210AA8FDF7B4
:10287000ABFC002501200F951095119501041295D0
:102880008DE8230004900005CDE908100224079488
:102890006846FEF727FD08B172B6FEE70AA90F20C9
:1028A00081E831004FF48060CDE90D0502210AA8CE
:1028B000FEF728FC08B172B6FEE74FF40040119015
:1028C0000F940FA8FEF7A8FB002801D072B6FEE710
:1028D00013B030BD704700000148FFF7A5BA0000F3
:1028E0003C010020F0B50268164B174C174D4FF015
:1028F0008047984205D0B84203D0A04201D0A842F8
:1029000003D122F070064A683243984205D0B8429B
:1029100003D0A04201D0A84203D122F44074CA6877
:1029200022434C6922F08002224302608A68C2621C
:102930000A688262984201D10969016301214161FB
:10294000F0BD0000002C01400004004000080040E1
:1029500010B5846842EA032224F47F440A432243E8
:10296000826010BD826822F070020A4342F00701C3
:102970008160704710B5036A046A24F001040462A0
:10298000846924F0F00444EA021423F00A020A43A2
:102990008461026210BD10B5036A23F01003036264
:1029A0008369046A23F4704343EA023224F0A003EB
:1029B00043EA01118261016210BD00002DE9F04778
:1029C0004848418B01297DD1816B0024491C8163DA
:1029D000454944830A68B0F9341001F5C0618A4260
:1029E0007ED1418ADFF80081491C41825030A8F134
:1029F00018088278602A5BD13A4D03464778B5F9CA
:102A000034601978DD78A0F1080906F5B066702FFA
:102A100002D0712F4CD133E08DBB2B2948D10179E5
:102A2000407901EB002000B200F049FE00222F4B5C
:102A300000F05CFE00222E4B00F0BCFC2D4A2E4B19
:102A400000F0B8FC00222D4B00F004FC0F2201F036
:102A50003EFA4FF0FF3201F03AFA00F003FE22494D
:102A60001C31C860602189F8001089F8017089F86C
:102A7000021089F80350484689F8044012E017E034
:102A8000B5B9402914D1432189F80010154989F8B6
:102A9000017089F80220583189F8035009884846A6
:102AA000D9B144714471847189F80740C8F8046051
:102AB0000821C8F80840C8E903410A4B88F81440C7
:102AC0003C3300E00CE0BDE8F047074903F10C029D
:102AD0001839A1F58C70FDF765BD01214171E1E761
:102AE000BDE8F08700000020EC0100200000344029
:102AF00000408F401F85EB51B81E094000409F40A9
:102B000070B5244D287808B9FFF754FD6978012085
:102B100029B1012904D002293AD1002037E0687098
:102B20001C4C58342188042930D2DFE801F002041B
:102B3000182E002209E06268002A05DB2721002008
:102B400000F05CFB022205E052422721002000F049
:102B500055FB01222021002000F050FB16E0A08947
:102B600042F21071484360600B48A168814200DD69
:102B7000A0602D210020A26800F040FB272100204A
:102B8000626800F03BFB0022E4E7E8810220687005
:102B900070BD0000000000206818070070B50446F2
:102BA00000680169E26821F4405111430161216923
:102BB000A0680843616908432168CA6841F20C6350
:102BC0009A430243CA6020684169A26921F44071B6
:102BD000114341611E492068884202D1FEF738FB4B
:102BE00001E0FEF725FB00EBC00101EB001260687D
:102BF00064218000B2FBF0F3B3FBF1F36FF0180631
:102C00007343B2FBF0F5B2FBF0F605EB830532231C
:102C100003EB0515B5FBF1F5B6FBF1F605F0F00594
:102C200005EB0615B2FBF0F6B2FBF0F0B0FBF1F0ED
:102C30006FF01802504306EB800003EB0010B0FB6E
:102C4000F1F0216800F00F002844886070BD00009A
:102C5000003801400148FDF7FFBD0000BC00002026
:102C6000FEE701460020FFF738BA01464020FFF793
:102C700034BA0907090E002804DB00F1E02080F8CF
:102C80000014704700F00F0000F1E02080F8141DE0
:102C9000704700EB8100C26070472DE9F0410D469E
:102CA0001E46174604462C21FDF78EFAA07820F028
:102CB000F0008030A0703046A560A8470146E0785B
:102CC00061F3C71067F38610E0702671BDE8F081EC
:102CD000074A11680B4605E0814202D14FF0FF30F0
:102CE0007047896A0029F7D183621060002070471D
:102CF00088000020002104E00222521C0A2AFCD392
:102D0000491C8142F8D370478AB0FEF7F5F8FFF707
:102D1000A6FDFFF7C5FAFFF779FAFFF79DFA954888
:102D20009349002401604FF4E131C0E901140C2102
:102D3000C460C0E904418461C461FFF764F908B16B
:102D400072B6FEE7FFF768FBFFF742FB8948483899
:102D5000FEF7D2FF0122D1038748FEF7BAF86420BC
:102D6000FDF7B0FFFFF750FA6420FDF7ABFF834D8E
:102D7000012202212846FEF7ACF800222915284638
:102D8000FEF7A7F86420FDF79DFF002201212846E9
:102D9000FEF79FF86420FDF795FF794A6C2100202B
:102DA00000F02CFA774A1021002000F027FA0A22BE
:102DB0001121002000F022FA00210422084600F030
:102DC0001DFA4FF4D2721321002000F017FA4FF4CD
:102DD0007A722421002000F011FA002225211046E9
:102DE00000F00CFA47F230552A462621002000F068
:102DF00005FA00222721104600F000FA2A46282171
:102E0000002000F0FBF94FF4AF622A21002000F00F
:102E1000F5F90A222B21002000F0F0F901222021EF
:102E2000002000F0EBF900222121104600F0E6F925
:102E300028216846FDF7C8F9012001940294CDE9E4
:102E40000640039408904B48009404940594694606
:102E5000C838FDF715FC47480221C838FDF790FB3C
:102E60004448C838FDF7FAFE424800231A4646494E
:102E7000C430FFF712FF3F48012300224249F030DF
:102E8000FFF70BFF3B48414A0021C430FFF701FF29
:102E900038483F4A0121C430FFF7FBFE35483D4A20
:102EA0000221C430FFF7F5FE32483B4A0321C4300B
:102EB000FFF7EFFE2F48394A0421C430FFF7E9FE3F
:102EC0002C48374A0521C430FFF7E3FE2948354A2C
:102ED0000621C430FFF7DDFE2648334A0021F030DA
:102EE000FFF7D7FE2348314A0121F030FFF7D1FE2A
:102EF00020482F4A0221F030FFF7CBFE1D482D4A13
:102F00000321F030FFF7C5FE1A482B4A0421F030A8
:102F1000FFF7BFFE1748294A0521F030FFF7B9FE39
:102F20001448274A0621F030FFF7B3FE1148C43099
:102F3000FFF7CEFE0F48F030FFF7CAFE214D062006
:102F4000A886FFF715FB0B49286C8431C860E88818
:102F50000128FCD1EC80FFF791FBFFF72FFDFFF775
:102F6000CFFD2121002000F069F86864EFE7000040
:102F7000003801408401002000080140000C01409D
:102F8000C30001000A0C0600C92F0008E302000874
:102F9000E7020008E5020008E9020008DD02000877
:102FA000E1020008DF020008F1020008F502000853
:102FB000F3020008F7020008EB020008EF02000825
:102FC000ED0200080000002010B5094A10B10128E8
:102FD00009D102E04FF4004101E04FF48041104676
:102FE000FDF772FF08B1002010BD012010BD0000E8
:102FF00000100140024630B408484FF48073042AA0
:1030000009D819B1FF2906D1012200E0002230BC05
:103010001946FDF75EBF30BC704700000008014054
:1030200001B5002006E00021491C89B23229FBD3FA
:10303000401C80B200998842F5D308BD2DE9F041CB
:103040000D4604460021FFF7D5FF0120FFF7E8FFFA
:10305000284600F041F8002000F03EF8002000F083
:103060003BF8002000F038F8002000F035F803208D
:10307000FFF7D6FFFF212046FFF7BCFF00212046C7
:10308000FFF7B8FF0120FFF7CBFF284600F024F838
:10309000002000F021F80F4D00202F5D00F01CF8FB
:1030A00015F80480002000F017F82E5D002000F0D5
:1030B00013F82D5D0320FFF7B3FFFF212046FFF734
:1030C00099FF48EA072046EA002645EA0620BDE8BF
:1030D000F081000080000020AFF300802DE9F05F58
:1030E000074644484FF0000B434D80F800B080F88D
:1030F00001B080F802B080F803B080F804B05E46FA
:103100004FF4005A4FF480488146002254465146FD
:103110002846FDF7DEFE00BF00BF00BF00BF00BFB6
:1031200000BF00BF00BF380601D5012200E0002229
:103130004FF400412846FDF7CCFE7806070E012229
:1031400021462846FDF7C5FE00BF00BF00BF00BFF7
:1031500000BF00BF00BF00BF4C4699F800004146C9
:10316000400089F8000099F80100400089F801004A
:1031700099F80200400089F8020099F80300400025
:1031800089F8030099F80400400089F804002846F3
:10319000FDF79AFE10B12078401C20704146284669
:1031A000FDF792FE10B16078401C607041462846E1
:1031B000FDF78AFE10B1A078401CA0704146284659
:1031C000FDF782FE10B1E078401CE07041462846D1
:1031D000FDF77AFE10B12079401C2071761CF6B202
:1031E000082E92D3002251462846FDF772FE58461B
:1031F000BDE8F09F80000020000C01402DE9F04761
:1032000089464FF000088246D6B2C2F30725C2F3C2
:103210000744170E4146FFF7EDFE0120FFF700FFC0
:1032200049F08000FFF758FF3846FFF755FF20466A
:10323000FFF752FF2846FFF74FFF3046FFF74CFFDE
:103240000420FFF7EDFEFF215046FFF7D3FE404676
:10325000BDE8F08710B591EA030F48BF83F0004343
:1032600000F14A83841A71EB030C05D2121943EB67
:103270000C03001B61EB0C01DFF824E14FEA115451
:10328000A4EB135C1EEA430F18BF9EEA445F73D0A1
:1032900023EA0E03DCF1200E21EA045143F48013EB
:1032A00032D322FA0CFE10EB0E0023FA0CFE41EB97
:1032B0000E01CCF1200E03FA0EFE10EB0E0051F1C0
:1032C0000001B1F5801FCCF1200E32D201EB045188
:1032D00012FA0EF2BDE8104058BF7047401C38BFCC
:1032E0005FEA420218BF7047002814BF20F00100B7
:1032F00041F100014FEA410313F5001F38BF704749
:10330000A1F1C04100F0EABA012A43EB0302ACF19B
:10331000200CDCF11F0E32BF4FF0000E23FA0CF32D
:1033200010EB030041EB0451B4EB115FD0D0A1EBE3
:10333000045101F5801149085FEA300001EB0451A6
:103340000ED350F1000038BF12FA0EFE08D1BDE8CE
:103350001040C9E7401C38BF5FEA4202CAD1C3E748
:10336000BDE810404FEA410313F5001F38BF704716
:10337000A1F1C04100F0B2BA9EEA445F08D011EA60
:103380005E0FBDE8104004BF01F00041002070470F
:10339000BDE8104070B500F053FA00BF64FBBE3EBC
:1033A0000000E0FF02494FF0000000F05EBD00BFEA
:1033B0000000F87F2DE9C04130B4DFF8A0C23CEA3C
:1033C000111418BF3CEA131400F0EC8081EA0305E5
:1033D0001CEA111444EAD57418BF1CEA131500F056
:1033E000C780A4EB05044FF0004545EAC12145EA3A
:1033F000C32341EA505143EA525304F17F74994286
:1034000004F500344FEAC0204FEAC22208BF9042C0
:1034100000F09C804FEA13650FF24016765D4FEA8C
:10342000134506FB05F7C7F1807706FB07F74FEA60
:10343000D737A7FB03687642C8F58038A7FB06CECE
:1034400038BFA8F1010807FB08E64FF0000EA6FB05
:10345000028CE6FB03CEDCF1000CCEF1004E38BF4F
:10346000AEF1010EA6FB0C584FF000074FF000051F
:10347000E6FB0E87A1FB08C6A0FB07CE16EB0E06E7
:1034800045F10005E1FB076515F1E04E7EBFA4F5AF
:1034900080345FEA46066D4116F1800745F100056C
:1034A0004FEA17274FEA066647EA0567A6F1DE46A8
:1034B000B6F1805F4FEA15251FD9384624F0010C7C
:1034C00005EBC471BCF1FE6F01EB0C1102D8F0BC2E
:1034D000BDE8008124425CBF01F5801E9EEAC47FE6
:1034E00002D4F0BCBDE80081244238D4F0BCA1F184
:1034F000C041BDE8004100F0F1B94FEAD22242EAF2
:1035000043524FEAD323A7FB02864FEAD02040EA7A
:10351000415007FB03661EEA0E0F4FEAD12105FB5F
:10352000026658BFA6EB0056B6EB00564FEA520EA5
:103530004EEAC37E18EB0E0E56EB530EBDD518EBBC
:1035400002085E417F1C55F10005B6E74FF4801577
:103550004FF000074FF000064FF00008ADE7F0BC59
:103560004FF0000001F1C04101F00041BDE80081D1
:1035700011EA0C1F0CEA131500D00CE013EA0C1F23
:1035800000F025804FF00000F0BC81EA030101F05B
:103590000041BDE80081F0BCBDE8004181EA0301C3
:1035A00000F09CB9F0BCBDE8004170B500F048F9EE
:1035B000097EFC3E00F007B881EA03014FF00000ED
:1035C00001F00041704781EA030100F087B9F0BCC7
:1035D000BDE800414FF0000021497047FFFDFBF9B5
:1035E000F7F5F4F2F0EEEDEBE9E8E6E4E3E1E0DE36
:1035F000DDDBDAD8D7D5D4D3D1D0CFCDCCCBCAC8A8
:10360000C7C6C5C4C2C1C0BFBEBDBCBBBAB9B8B7CE
:10361000B6B5B4B3B2B1B0AFAEADACABAAA9A8A8C1
:10362000A7A6A5A4A3A3A2A1A09F9F9E9D9C9C9B8F
:103630009A9999989797969595949393929191903A
:103640008F8F8E8E8D8C8C8B8B8A898988888787CB
:103650008685858484838382828181800000FF0740
:103660000000F87F4FEA1153A3F58063D3F11E03E6
:10367000A8BFD3F1200C08DB4FF0004242EAC12280
:1036800052EA505232FA03F0704709420BD4102B21
:10369000C4BF0020704703F5787CBCF1FF3F05D024
:1036A0004FF0FF3070474FF00000704770B500F0EA
:1036B000C7F800BF4992248000207047F0E710F05F
:1036C000004248BF4042B0FA80F310FA03F10AD03A
:1036D000C3F11D0303F580634FEA415002EB03522F
:1036E00002EBD12170474FF000007047DFF848C16E
:1036F00070B51CEA111E1EBF1CEA13159EEA0C0FC2
:1037000095EA0C0F00F06F8081EA030423EA4C1362
:103710004EEAD47E21EA4C1141F4801143F4801327
:10372000AE44A1FB024CA0FB0365AEF17F7E3619CF
:1037300055EB0C05A1FB034C4CF10003A0FB021C54
:1037400016EB0C06654153F10003094218BF46F021
:10375000010613F4007F0BD14FEA03314FEA053025
:10376000340341EA155140EA16506FF003020AE0B3
:103770004FEAC3214FEAC520F40241EA555140EA1D
:1037800056506FF0020202EB2E4201EB025585EA21
:10379000CE710AD05FEA440C18BF24F0004450F107
:1037A000000041F1000120EAD47040F2FE7C624545
:1037B00000D270BDA84214BF4FF080444FF0404487
:1037C000002E08BF0024BEF1806FA8BFA1F1C04148
:1037D000BDE8704080F282804FF0000001F1C041EE
:1037E00001F0004170479EEA0C0F0CEA131518BF58
:1037F00095EA0C0F06D04FF0000081EA030E0EF0A0
:10380000004170BD00F01CF88900013E00F007B8CF
:1038100000F009B84FEA430C5FEA5C5C08D081EA2B
:10382000030100F05BB84FEA410C5FEA5C5CF6D143
:103830004FF00000014970470000FF070000F87FCB
:103840000EF1020E2EF0030E5EF8046B364205D424
:10385000012A43EB030515F5001F12D8012841EB9F
:10386000010C1CF5001F0CD80ED14FEAD17C15F5C8
:10387000001F0CEB4C0C0CF1020C08BF4CEBD37C82
:1038800004E04FF0080C01E04FEAD37C0CEB4C0550
:1038900026FA05F606F00706B6F1040C06D20EEB82
:1038A000860CBDE870404CF0010C6047DFE80CF07E
:1038B000090B02024FF000414FF00000A1F500217A
:1038C00070BD19461046012851EB010418BFD4F50C
:1038D000001484BF002001F0004170BD0808A0F56D
:1038E00000114FEA3101704710B591EA030F48BF4C
:1038F00083F000433FF5B6AC841A71EB030C07D29A
:1039000012198CF0004C43EB0C03001B61EB0C0113
:10391000DFF8A4E14FEA1154A4EB135C1EEA430F55
:1039200018BF9EEA445F00F0B08023EA6E03524263
:1039300021EA0451C3EB6E0338BF5B1EDCF1200E9D
:1039400025D322FA0CFE10EB0E0043FA0CFE41EBDD
:103950000E01CCF1200E03FA0EFE10EB0E0051F119
:103960000001CCF1200E29D412FA0EF201EB045121
:10397000BDE8104058BF7047401C1CBFB2F1004F5B
:10398000704700280CBF491C20F00100704712EB63
:10399000020E43EB030218BF4FF0010E4EEA420243
:1039A000ACF1200CDCF11E0E54D943FA0CFE10EBE6
:1039B0000E0051F1FF31CCF11E0ED5D50EF1010EE6
:1039C00012FA0EFE404141EB010101EB445C5FEA5B
:1039D0005C5C10D910EBDE7001EB045138BFBEF116
:1039E000004FBDE8104018BF704700280CBF491CAD
:1039F00020F00100704730D24FEAD42C11F50011AD
:103A000024F400641BD0B1FA81F20B3AA41AA41E6C
:103A1000D2F12003914030FA03F31943904001EBB7
:103A2000CC71002C01EB0451BDE81040A8BF7047D9
:103A300001F1C0414FF0000001F000417047B0FAC1
:103A400080F310FA03F100D110BDE41A173C4805C9
:103A5000C90AE4E701EB045110BD491001EB045120
:103A6000BDE810404FEA300002E04FF0000170471F
:103A70004A0008BF0042F8D0B2F5001F28BF7047C7
:103A800001F000414FF0000070479EEA445F07D00C
:103A900011EA5E0FBDE8104004BF0021002070470E
:103AA000BDE8104070B5FFF7CBFE00BF40DFF63E2B
:103AB00083F00041104670470000E0FF90EA010FDC
:103AC00048BF81F0004100F16281421A3CBF801A78
:103AD00089184FEAD0524FF07F4C1CEA410FA2EBFD
:103AE000D15318BF9CEA026F00F03B804FF0004CAE
:103AF0004CEA00204CEA012121FA03FC10EB0C0CEB
:103B00001ED202F1FF325FEA1C2040EBC25038BFE8
:103B100070471CF07F0F4FEA400C18BFBCF17F4F7D
:103B200038BF7047C3F12003994008BF20F001005F
:103B3000BCF17F4F38BF7047A0F1C04000F01BB907
:103B40004FEA3C00000A40EBC25028BF1CF0FF0FB8
:103B50004FEA400CE6D018BFBCF17F4F38BF70472A
:103B6000EAE79CEA026F05D010EA5C0F08BF00F09C
:103B70000040704710B500F0B8F800BF64FBBE3ECF
:103B800041000B0ED3F19E0208D950F400034FEA16
:103B9000032323FA02F048BF4042704710B500F0FB
:103BA000A4F800BF49922480002070476FF00042C3
:103BB00082EA20007047000010F0004148BF4042F8
:103BC000B0FA80F310FA03F2C3F19D030BD051EA6F
:103BD000C35101EB1220530638BF704700F10100BA
:103BE00008BF20F0010070474FF47F0C1CEAD01290
:103BF0001EBF1CEAD11392EA0C0F93EA0C0F00F0DF
:103C0000478090EA010F48BF42F480724FF0004CA9
:103C10004CEA00204CEA012102EB0302A0FB011355
:103C2000A2F50002002918BF43F001035B0028BF82
:103C30004FEA330342EB22425FEA132C4CEBC250B3
:103C40002EBFBCEB436FB2F57C0F70474FEA036C9D
:103C5000BCF1004F08BF20F00100B2F57C0F38BF67
:103C600070470BD582F0FF0212F5803FC8BF704746
:103C700000F1C040D8BF00F00040704700F5000CD4
:103C80005FEA4C0C48BF7047B0F1C04000F073B819
:103C900090EA010F0CEAD11348BF42F480726245EA
:103CA00038BF634504D280EA010000F0004070474D
:103CB00010B500F01AF800BF8900013E00F007B807
:103CC00000F009B85FEA410C5FEA1C6C08D080EA9A
:103CD000010000F050B85FEA400C5FEA1C6CF6D1BE
:103CE0004FF00040A0F5800070470EF1020E2EF05C
:103CF000030E5EF8044B244204D44FEA4102B2F1B1
:103D00007F4F11D84FEA4003B3F17F4F0CD80ED14B
:103D10004FEAD07CB2F17F4F0CEB4C0C0CF1020C53
:103D200008BF4CEBD17C04E04FF0080C01E04FEAF7
:103D3000D17C0CEB4C0324FA03F404F00704B4F137
:103D4000040C06D20EEB840CBDE810404CF0010CC4
:103D50006047DFE80CF0070802024FF00040A0F5D2
:103D6000800010BD0846420018BFD2F1807288BFA3
:103D700000F0004010BDFF2141EAD050C00570475F
:103D800090EA010F48BF81F000413FF59EAE421A14
:103D900004D882F00042A0EB020011444FEAD05256
:103DA0004FF07F4C1CEA410FA2EBD15318BF9CEAA5
:103DB000026F4AD04FF0004C4CEA00204CEA01213F
:103DC00021FA03FCB0EB0C0C0FD412F0FE0F36D02E
:103DD0005FEA4C001DD5001240EBC25038BF70475F
:103DE0001CF03F0F18BF70470BE0A2F101025FEA21
:103DF0001C2040EBC25038BF70471CF07F0F18BF2B
:103E00007047C3F12003994014BF401E20F0010009
:103E1000704780084FEA122308BF7047B0FA80FC51
:103E2000A2EB0C02CCF1280C60FA0CF093EA122FF2
:103E300004BF00EBC25070474FEAC3707047130ACB
:103E40005FEADC1008BF7047F6E79CEA026F04D017
:103E500010EA5C0F08BF0020704710B5FFF745FF60
:103E600040DFF63E81F0004070470CF00F03092B55
:103E700008BF082000F059800A2B0BD0082B18BF70
:103E8000704708BF1CF0400F0AD04FF000004FF001
:103E9000000170471CF0400F18BF4FF00040704702
:103EA0001CF0100F08D020F0704300F07F4242EA6F
:103EB000D3014FEA4370704700F0604021F07F4229
:103EC00042EA000201F07F4040EA727070474FF012
:103ED000FF0C4CF4E06C1CEA11531CBF9CEA030C71
:103EE0009445C2BFDA4201EB02517047002B0DD05E
:103EF000BCF1000F0FD0002A01F00041A4BF41F037
:103F0000E04141F07F614FF00000704701F0004157
:103F10004FF00000704750EA01334FF09B0C18BF80
:103F20004CF0806C7FF43EAA70471CF4801F11D0C7
:103F30001CF4E02F03D06FEACC31490070474FF0FA
:103F40004050EFF3008222F0704242EA000282F316
:103F5000008870474FF0000070470000000000002C
:103F60000000010203040607080900000000010226
:103F700003040000943F0008000000208C000000B3
:103F800028010008204000088C0000207408000070
:103F900044010008000000000000000000000000D4
:103FA0000000000000000000E803803EE80300007D
:103FB0000000000000000000000000000000000001
:103FC00000000000000000000000000000000000F1
:103FD000000000000000000000000000001122337B
:103FE000445566770000000000000000000000005B
:103FF00000000000000000000E00000000000000B3
:104000000100000010000000000000000024F40087
:1040100000000000000000000000000000000000A0
:04000005080000ED02
:00000001FF
